{
  "_format": "hh-sol-artifact-1",
  "contractName": "SecureVault",
  "sourceName": "contracts/SecureVault.sol",
  "abi": [
    {
      "inputs": [],
      "stateMutability": "nonpayable",
      "type": "constructor"
    },
    {
      "anonymous": false,
      "inputs": [
        {
          "indexed": true,
          "internalType": "address",
          "name": "user",
          "type": "address"
        },
        {
          "indexed": false,
          "internalType": "uint256",
          "name": "amount",
          "type": "uint256"
        }
      ],
      "name": "BalanceSecured",
      "type": "event"
    },
    {
      "anonymous": false,
      "inputs": [
        {
          "indexed": true,
          "internalType": "address",
          "name": "user",
          "type": "address"
        },
        {
          "indexed": false,
          "internalType": "string",
          "name": "name",
          "type": "string"
        },
        {
          "indexed": false,
          "internalType": "bool",
          "name": "success",
          "type": "bool"
        }
      ],
      "name": "PasswordRetrievalAttempt",
      "type": "event"
    },
    {
      "anonymous": false,
      "inputs": [
        {
          "indexed": true,
          "internalType": "address",
          "name": "user",
          "type": "address"
        },
        {
          "indexed": false,
          "internalType": "string",
          "name": "name",
          "type": "string"
        }
      ],
      "name": "PasswordStored",
      "type": "event"
    },
    {
      "anonymous": false,
      "inputs": [
        {
          "indexed": true,
          "internalType": "address",
          "name": "user",
          "type": "address"
        },
        {
          "indexed": false,
          "internalType": "uint256",
          "name": "amount",
          "type": "uint256"
        }
      ],
      "name": "PenaltyApplied",
      "type": "event"
    },
    {
      "anonymous": false,
      "inputs": [
        {
          "indexed": true,
          "internalType": "address",
          "name": "user",
          "type": "address"
        },
        {
          "indexed": false,
          "internalType": "uint256",
          "name": "amount",
          "type": "uint256"
        }
      ],
      "name": "TipReceived",
      "type": "event"
    },
    {
      "anonymous": false,
      "inputs": [
        {
          "indexed": true,
          "internalType": "address",
          "name": "user",
          "type": "address"
        },
        {
          "indexed": false,
          "internalType": "uint256",
          "name": "lockedUntil",
          "type": "uint256"
        }
      ],
      "name": "VaultLocked",
      "type": "event"
    },
    {
      "anonymous": false,
      "inputs": [
        {
          "indexed": true,
          "internalType": "address",
          "name": "user",
          "type": "address"
        }
      ],
      "name": "VaultUnlocked",
      "type": "event"
    },
    {
      "inputs": [],
      "name": "LOCK_PERIOD",
      "outputs": [
        {
          "internalType": "uint256",
          "name": "",
          "type": "uint256"
        }
      ],
      "stateMutability": "view",
      "type": "function"
    },
    {
      "inputs": [],
      "name": "MIN_PENALTY",
      "outputs": [
        {
          "internalType": "uint256",
          "name": "",
          "type": "uint256"
        }
      ],
      "stateMutability": "view",
      "type": "function"
    },
    {
      "inputs": [],
      "name": "MIN_TIP",
      "outputs": [
        {
          "internalType": "uint256",
          "name": "",
          "type": "uint256"
        }
      ],
      "stateMutability": "view",
      "type": "function"
    },
    {
      "inputs": [
        {
          "internalType": "string",
          "name": "_name",
          "type": "string"
        },
        {
          "internalType": "bytes32",
          "name": "_attempt",
          "type": "bytes32"
        }
      ],
      "name": "attemptPasswordRetrieval",
      "outputs": [
        {
          "internalType": "bool",
          "name": "success",
          "type": "bool"
        },
        {
          "internalType": "string",
          "name": "password",
          "type": "string"
        }
      ],
      "stateMutability": "payable",
      "type": "function"
    },
    {
      "inputs": [
        {
          "internalType": "string",
          "name": "_name",
          "type": "string"
        }
      ],
      "name": "getPasswordDetails",
      "outputs": [
        {
          "internalType": "string",
          "name": "name",
          "type": "string"
        },
        {
          "internalType": "string",
          "name": "account",
          "type": "string"
        },
        {
          "internalType": "bool",
          "name": "hasCode",
          "type": "bool"
        },
        {
          "internalType": "uint256",
          "name": "cost",
          "type": "uint256"
        },
        {
          "internalType": "uint256",
          "name": "attemptCount",
          "type": "uint256"
        },
        {
          "internalType": "uint256",
          "name": "openCount",
          "type": "uint256"
        },
        {
          "internalType": "bool",
          "name": "isLocked",
          "type": "bool"
        },
        {
          "internalType": "uint256",
          "name": "timeUntilUnlock",
          "type": "uint256"
        }
      ],
      "stateMutability": "view",
      "type": "function"
    },
    {
      "inputs": [],
      "name": "getPasswordNames",
      "outputs": [
        {
          "internalType": "string[]",
          "name": "",
          "type": "string[]"
        }
      ],
      "stateMutability": "view",
      "type": "function"
    },
    {
      "inputs": [],
      "name": "getUserBalances",
      "outputs": [
        {
          "internalType": "uint256",
          "name": "securedBalance",
          "type": "uint256"
        },
        {
          "internalType": "uint256",
          "name": "penaltyTotal",
          "type": "uint256"
        }
      ],
      "stateMutability": "view",
      "type": "function"
    },
    {
      "inputs": [],
      "name": "giveTip",
      "outputs": [],
      "stateMutability": "payable",
      "type": "function"
    },
    {
      "inputs": [],
      "name": "owner",
      "outputs": [
        {
          "internalType": "address",
          "name": "",
          "type": "address"
        }
      ],
      "stateMutability": "view",
      "type": "function"
    },
    {
      "inputs": [],
      "name": "registerUser",
      "outputs": [],
      "stateMutability": "nonpayable",
      "type": "function"
    },
    {
      "inputs": [
        {
          "internalType": "string",
          "name": "_name",
          "type": "string"
        }
      ],
      "name": "resetVault",
      "outputs": [],
      "stateMutability": "nonpayable",
      "type": "function"
    },
    {
      "inputs": [
        {
          "internalType": "string",
          "name": "_name",
          "type": "string"
        },
        {
          "internalType": "string",
          "name": "_account",
          "type": "string"
        },
        {
          "internalType": "bytes32",
          "name": "_encryptedData",
          "type": "bytes32"
        },
        {
          "internalType": "bool",
          "name": "_hasCode",
          "type": "bool"
        },
        {
          "internalType": "uint256",
          "name": "_cost",
          "type": "uint256"
        }
      ],
      "name": "storePassword",
      "outputs": [],
      "stateMutability": "nonpayable",
      "type": "function"
    },
    {
      "inputs": [
        {
          "internalType": "string",
          "name": "_name",
          "type": "string"
        },
        {
          "internalType": "uint256",
          "name": "_newCost",
          "type": "uint256"
        }
      ],
      "name": "updateCost",
      "outputs": [],
      "stateMutability": "nonpayable",
      "type": "function"
    },
    {
      "inputs": [],
      "name": "withdrawSecuredBalance",
      "outputs": [],
      "stateMutability": "nonpayable",
      "type": "function"
    },
    {
      "inputs": [],
      "name": "withdrawTips",
      "outputs": [],
      "stateMutability": "nonpayable",
      "type": "function"
    }
  ],
  "bytecode": "0x6080604052348015600f57600080fd5b50336000806101000a81548173ffffffffffffffffffffffffffffffffffffffff021916908373ffffffffffffffffffffffffffffffffffffffff160217905550612d318061005f6000396000f3fe6080604052600436106100e85760003560e01c80635a4d93451161008a578063bba042e611610059578063bba042e614610290578063bd6edba5146102bb578063d431dbeb146102e7578063e091892e146102fe576100e8565b80635a4d9345146101cd57806371a642dc146101f65780638da5cb5b14610221578063b828331b1461024c576100e8565b806343e25e49116100c657806343e25e49146101585780634d3820eb14610181578063539ed2401461019857806354525511146101a2576100e8565b80631820cabb146100ed5780632bf61685146101185780633aaa74b214610141575b600080fd5b3480156100f957600080fd5b5061010261032f565b60405161010f9190611a5e565b60405180910390f35b34801561012457600080fd5b5061013f600480360381019061013a9190611bff565b610336565b005b34801561014d57600080fd5b506101566104e0565b005b34801561016457600080fd5b5061017f600480360381019061017a9190611c5b565b6105d7565b005b34801561018d57600080fd5b506101966107ce565b005b6101a06108b5565b005b3480156101ae57600080fd5b506101b76109da565b6040516101c49190611de5565b60405180910390f35b3480156101d957600080fd5b506101f460048036038101906101ef9190611e75565b610b7f565b005b34801561020257600080fd5b5061020b610e78565b6040516102189190611a5e565b60405180910390f35b34801561022d57600080fd5b50610236610e82565b6040516102439190611f69565b60405180910390f35b34801561025857600080fd5b50610273600480360381019061026e9190611c5b565b610ea6565b604051610287989796959493929190611fdd565b60405180910390f35b34801561029c57600080fd5b506102a56111c1565b6040516102b29190611a5e565b60405180910390f35b3480156102c757600080fd5b506102d06111cb565b6040516102de929190612069565b60405180910390f35b3480156102f357600080fd5b506102fc6112b0565b005b61031860048036038101906103139190612092565b611420565b6040516103269291906120ee565b60405180910390f35b6203f48081565b600260003373ffffffffffffffffffffffffffffffffffffffff1673ffffffffffffffffffffffffffffffffffffffff16815260200190815260200160002060009054906101000a900460ff166103c2576040517f08c379a00000000000000000000000000000000000000000000000000000000081526004016103b99061216a565b60405180910390fd5b6002655af3107a40006103d591906121b9565b811015610417576040517f08c379a000000000000000000000000000000000000000000000000000000000815260040161040e9061226d565b60405180910390fd5b6000600160003373ffffffffffffffffffffffffffffffffffffffff1673ffffffffffffffffffffffffffffffffffffffff16815260200190815260200160002090506000816000018460405161046e91906122c9565b90815260200160405180910390209050600081600001805461048f9061230f565b9050116104d1576040517f08c379a00000000000000000000000000000000000000000000000000000000081526004016104c89061238c565b60405180910390fd5b82816004018190555050505050565b60008054906101000a900473ffffffffffffffffffffffffffffffffffffffff1673ffffffffffffffffffffffffffffffffffffffff163373ffffffffffffffffffffffffffffffffffffffff161461056e576040517f08c379a00000000000000000000000000000000000000000000000000000000081526004016105659061241e565b60405180910390fd5b60008054906101000a900473ffffffffffffffffffffffffffffffffffffffff1673ffffffffffffffffffffffffffffffffffffffff166108fc479081150290604051600060405180830381858888f193505050501580156105d4573d6000803e3d6000fd5b50565b600260003373ffffffffffffffffffffffffffffffffffffffff1673ffffffffffffffffffffffffffffffffffffffff16815260200190815260200160002060009054906101000a900460ff16610663576040517f08c379a000000000000000000000000000000000000000000000000000000000815260040161065a9061216a565b60405180910390fd5b6000600160003373ffffffffffffffffffffffffffffffffffffffff1673ffffffffffffffffffffffffffffffffffffffff1681526020019081526020016000209050600081600001836040516106ba91906122c9565b9081526020016040518091039020905060008160000180546106db9061230f565b90501161071d576040517f08c379a00000000000000000000000000000000000000000000000000000000081526004016107149061238c565b60405180910390fd5b6000816006015411610764576040517f08c379a000000000000000000000000000000000000000000000000000000000815260040161075b906124b0565b60405180910390fd5b60008160050181905550600081600601819055503373ffffffffffffffffffffffffffffffffffffffff167f4f3fac9c55441a442608db894af3c5f0b1cc4d2abe21ff2cd51cecf856c514cc8460016040516107c19291906124d0565b60405180910390a2505050565b600260003373ffffffffffffffffffffffffffffffffffffffff1673ffffffffffffffffffffffffffffffffffffffff16815260200190815260200160002060009054906101000a900460ff161561085b576040517f08c379a00000000000000000000000000000000000000000000000000000000081526004016108529061254c565b60405180910390fd5b6001600260003373ffffffffffffffffffffffffffffffffffffffff1673ffffffffffffffffffffffffffffffffffffffff16815260200190815260200160002060006101000a81548160ff021916908315150217905550565b600260003373ffffffffffffffffffffffffffffffffffffffff1673ffffffffffffffffffffffffffffffffffffffff16815260200190815260200160002060009054906101000a900460ff16610941576040517f08c379a00000000000000000000000000000000000000000000000000000000081526004016109389061216a565b60405180910390fd5b6509184e72a00034101561098a576040517f08c379a0000000000000000000000000000000000000000000000000000000008152600401610981906125b8565b60405180910390fd5b3373ffffffffffffffffffffffffffffffffffffffff167fd870bae925cfee4bcba43c4af9dd73d2355dfaf3bb76145be3857b4ec634ab9f346040516109d09190611a5e565b60405180910390a2565b6060600260003373ffffffffffffffffffffffffffffffffffffffff1673ffffffffffffffffffffffffffffffffffffffff16815260200190815260200160002060009054906101000a900460ff16610a68576040517f08c379a0000000000000000000000000000000000000000000000000000000008152600401610a5f9061216a565b60405180910390fd5b600160003373ffffffffffffffffffffffffffffffffffffffff1673ffffffffffffffffffffffffffffffffffffffff168152602001908152602001600020600101805480602002602001604051908101604052809291908181526020016000905b82821015610b76578382906000526020600020018054610ae99061230f565b80601f0160208091040260200160405190810160405280929190818152602001828054610b159061230f565b8015610b625780601f10610b3757610100808354040283529160200191610b62565b820191906000526020600020905b815481529060010190602001808311610b4557829003601f168201915b505050505081526020019060010190610aca565b50505050905090565b600260003373ffffffffffffffffffffffffffffffffffffffff1673ffffffffffffffffffffffffffffffffffffffff16815260200190815260200160002060009054906101000a900460ff16610c0b576040517f08c379a0000000000000000000000000000000000000000000000000000000008152600401610c029061216a565b60405180910390fd5b6002655af3107a4000610c1e91906121b9565b811015610c60576040517f08c379a0000000000000000000000000000000000000000000000000000000008152600401610c579061226d565b60405180910390fd5b6000600160003373ffffffffffffffffffffffffffffffffffffffff1673ffffffffffffffffffffffffffffffffffffffff16815260200190815260200160002090506000808260000188604051610cb891906122c9565b90815260200160405180910390206000018054610cd49061230f565b90501490508015610d17578160010187908060018154018082558091505060019003906000526020600020016000909190919091509081610d159190612784565b505b6040518061012001604052808881526020018781526020018515158152602001868152602001848152602001600081526020016000815260200160008152602001600015158152508260000188604051610d7191906122c9565b90815260200160405180910390206000820151816000019081610d949190612784565b506020820151816001019081610daa9190612784565b5060408201518160020160006101000a81548160ff021916908315150217905550606082015181600301556080820151816004015560a0820151816005015560c0820151816006015560e082015181600701556101008201518160080160006101000a81548160ff0219169083151502179055509050503373ffffffffffffffffffffffffffffffffffffffff167f750313e45caf40b2079d26ce7a9f02d1c0797ec7389dfc8755a16680cf1c200688604051610e679190612856565b60405180910390a250505050505050565b655af3107a400081565b60008054906101000a900473ffffffffffffffffffffffffffffffffffffffff1681565b606080600080600080600080600260003373ffffffffffffffffffffffffffffffffffffffff1673ffffffffffffffffffffffffffffffffffffffff16815260200190815260200160002060009054906101000a900460ff16610f3e576040517f08c379a0000000000000000000000000000000000000000000000000000000008152600401610f359061216a565b60405180910390fd5b6000600160003373ffffffffffffffffffffffffffffffffffffffff1673ffffffffffffffffffffffffffffffffffffffff16815260200190815260200160002090506000816000018b604051610f9591906122c9565b908152602001604051809103902090506000816000018054610fb69061230f565b905011610ff8576040517f08c379a0000000000000000000000000000000000000000000000000000000008152600401610fef9061238c565b60405180910390fd5b60008160080160009054906101000a900460ff16801561102957506203f48082600701546110269190612878565b42105b1561104f57426203f48083600701546110429190612878565b61104c91906128ac565b90505b81600001826001018360020160009054906101000a900460ff168460040154856005015486600601548760080160009054906101000a900460ff16878780546110979061230f565b80601f01602080910402602001604051908101604052809291908181526020018280546110c39061230f565b80156111105780601f106110e557610100808354040283529160200191611110565b820191906000526020600020905b8154815290600101906020018083116110f357829003601f168201915b505050505097508680546111239061230f565b80601f016020809104026020016040519081016040528092919081815260200182805461114f9061230f565b801561119c5780601f106111715761010080835404028352916020019161119c565b820191906000526020600020905b81548152906001019060200180831161117f57829003601f168201915b505050505096509a509a509a509a509a509a509a509a50505050919395975091939597565b6509184e72a00081565b600080600260003373ffffffffffffffffffffffffffffffffffffffff1673ffffffffffffffffffffffffffffffffffffffff16815260200190815260200160002060009054906101000a900460ff1661125a576040517f08c379a00000000000000000000000000000000000000000000000000000000081526004016112519061216a565b60405180910390fd5b6000600160003373ffffffffffffffffffffffffffffffffffffffff1673ffffffffffffffffffffffffffffffffffffffff16815260200190815260200160002090508060020154816003015492509250509091565b600260003373ffffffffffffffffffffffffffffffffffffffff1673ffffffffffffffffffffffffffffffffffffffff16815260200190815260200160002060009054906101000a900460ff1661133c576040517f08c379a00000000000000000000000000000000000000000000000000000000081526004016113339061216a565b60405180910390fd5b6000600160003373ffffffffffffffffffffffffffffffffffffffff1673ffffffffffffffffffffffffffffffffffffffff1681526020019081526020016000209050600081600201549050600081116113cb576040517f08c379a00000000000000000000000000000000000000000000000000000000081526004016113c29061292c565b60405180910390fd5b600082600201819055503373ffffffffffffffffffffffffffffffffffffffff166108fc829081150290604051600060405180830381858888f1935050505015801561141b573d6000803e3d6000fd5b505050565b60006060600260003373ffffffffffffffffffffffffffffffffffffffff1673ffffffffffffffffffffffffffffffffffffffff16815260200190815260200160002060009054906101000a900460ff166114b0576040517f08c379a00000000000000000000000000000000000000000000000000000000081526004016114a79061216a565b60405180910390fd5b6000600160003373ffffffffffffffffffffffffffffffffffffffff1673ffffffffffffffffffffffffffffffffffffffff16815260200190815260200160002090506000816000018660405161150791906122c9565b9081526020016040518091039020905060008160000180546115289061230f565b90501161156a576040517f08c379a00000000000000000000000000000000000000000000000000000000081526004016115619061238c565b60405180910390fd5b8060080160009054906101000a900460ff16158061159a57506203f48081600701546115969190612878565b4210155b6115d9576040517f08c379a00000000000000000000000000000000000000000000000000000000081526004016115d090612998565b60405180910390fd5b8060040154341015611620576040517f08c379a000000000000000000000000000000000000000000000000000000000815260040161161790612a2a565b60405180910390fd5b8060080160009054906101000a900460ff16801561165057506203f480816007015461164c9190612878565b4210155b156116b65760008160080160006101000a81548160ff0219169083151502179055503373ffffffffffffffffffffffffffffffffffffffff167fb90f637c9ae38effeea06ad34c58331954898f0d0d4109d30b95e0426b291ff760405160405180910390a25b806003015485036117c0578060060160008154809291906116d690612a4a565b9190505550600081600501819055503373ffffffffffffffffffffffffffffffffffffffff166108fc349081150290604051600060405180830381858888f1935050505015801561172b573d6000803e3d6000fd5b503373ffffffffffffffffffffffffffffffffffffffff167f4f3fac9c55441a442608db894af3c5f0b1cc4d2abe21ff2cd51cecf856c514cc8760016040516117759291906124d0565b60405180910390a260016040518060400160405280601f81526020017f50617373776f726420726574726965766564207375636365737366756c6c79008152509350935050506119fa565b8060050160008154809291906117d590612a4a565b919050555060006117e98260050154611a01565b9050808360030160008282546117ff9190612878565b925050819055506000813461181491906128ac565b90503373ffffffffffffffffffffffffffffffffffffffff167f4b28c7dc138644f27518388387393ecbd08ef8d180a4a6799c954be166a37ab38360405161185c9190611a5e565b60405180910390a26000600384600501546118779190612ac1565b0361198f5760018360080160006101000a81548160ff021916908315150217905550428360070181905550808460020160008282546118b69190612878565b925050819055503373ffffffffffffffffffffffffffffffffffffffff167fd5b16a13acf0c0d853e62521619741bd87e4519ea4339322e69604ba11ba16336203f480426119049190612878565b6040516119119190611a5e565b60405180910390a23373ffffffffffffffffffffffffffffffffffffffff167fcf626b9ebd0a56bdbda87c5da0faa1fd49ffced469fea32b77e0484b3a4d04028260405161195f9190611a5e565b60405180910390a26000604051806060016040528060378152602001612cc56037913995509550505050506119fa565b3373ffffffffffffffffffffffffffffffffffffffff166108fc829081150290604051600060405180830381858888f193505050501580156119d5573d6000803e3d6000fd5b506000604051806060016040528060238152602001612ca26023913995509550505050505b9250929050565b6000806003600184611a1391906128ac565b611a1d9190612af2565b9050806002611a2c9190612c56565b655af3107a4000611a3d91906121b9565b915050919050565b6000819050919050565b611a5881611a45565b82525050565b6000602082019050611a736000830184611a4f565b92915050565b6000604051905090565b600080fd5b600080fd5b600080fd5b600080fd5b6000601f19601f8301169050919050565b7f4e487b7100000000000000000000000000000000000000000000000000000000600052604160045260246000fd5b611ae082611a97565b810181811067ffffffffffffffff82111715611aff57611afe611aa8565b5b80604052505050565b6000611b12611a79565b9050611b1e8282611ad7565b919050565b600067ffffffffffffffff821115611b3e57611b3d611aa8565b5b611b4782611a97565b9050602081019050919050565b82818337600083830152505050565b6000611b76611b7184611b23565b611b08565b905082815260208101848484011115611b9257611b91611a92565b5b611b9d848285611b54565b509392505050565b600082601f830112611bba57611bb9611a8d565b5b8135611bca848260208601611b63565b91505092915050565b611bdc81611a45565b8114611be757600080fd5b50565b600081359050611bf981611bd3565b92915050565b60008060408385031215611c1657611c15611a83565b5b600083013567ffffffffffffffff811115611c3457611c33611a88565b5b611c4085828601611ba5565b9250506020611c5185828601611bea565b9150509250929050565b600060208284031215611c7157611c70611a83565b5b600082013567ffffffffffffffff811115611c8f57611c8e611a88565b5b611c9b84828501611ba5565b91505092915050565b600081519050919050565b600082825260208201905092915050565b6000819050602082019050919050565b600081519050919050565b600082825260208201905092915050565b60005b83811015611d0a578082015181840152602081019050611cef565b60008484015250505050565b6000611d2182611cd0565b611d2b8185611cdb565b9350611d3b818560208601611cec565b611d4481611a97565b840191505092915050565b6000611d5b8383611d16565b905092915050565b6000602082019050919050565b6000611d7b82611ca4565b611d858185611caf565b935083602082028501611d9785611cc0565b8060005b85811015611dd35784840389528151611db48582611d4f565b9450611dbf83611d63565b925060208a01995050600181019050611d9b565b50829750879550505050505092915050565b60006020820190508181036000830152611dff8184611d70565b905092915050565b6000819050919050565b611e1a81611e07565b8114611e2557600080fd5b50565b600081359050611e3781611e11565b92915050565b60008115159050919050565b611e5281611e3d565b8114611e5d57600080fd5b50565b600081359050611e6f81611e49565b92915050565b600080600080600060a08688031215611e9157611e90611a83565b5b600086013567ffffffffffffffff811115611eaf57611eae611a88565b5b611ebb88828901611ba5565b955050602086013567ffffffffffffffff811115611edc57611edb611a88565b5b611ee888828901611ba5565b9450506040611ef988828901611e28565b9350506060611f0a88828901611e60565b9250506080611f1b88828901611bea565b9150509295509295909350565b600073ffffffffffffffffffffffffffffffffffffffff82169050919050565b6000611f5382611f28565b9050919050565b611f6381611f48565b82525050565b6000602082019050611f7e6000830184611f5a565b92915050565b600082825260208201905092915050565b6000611fa082611cd0565b611faa8185611f84565b9350611fba818560208601611cec565b611fc381611a97565b840191505092915050565b611fd781611e3d565b82525050565b6000610100820190508181036000830152611ff8818b611f95565b9050818103602083015261200c818a611f95565b905061201b6040830189611fce565b6120286060830188611a4f565b6120356080830187611a4f565b61204260a0830186611a4f565b61204f60c0830185611fce565b61205c60e0830184611a4f565b9998505050505050505050565b600060408201905061207e6000830185611a4f565b61208b6020830184611a4f565b9392505050565b600080604083850312156120a9576120a8611a83565b5b600083013567ffffffffffffffff8111156120c7576120c6611a88565b5b6120d385828601611ba5565b92505060206120e485828601611e28565b9150509250929050565b60006040820190506121036000830185611fce565b81810360208301526121158184611f95565b90509392505050565b7f55736572206e6f74207265676973746572656400000000000000000000000000600082015250565b6000612154601383611f84565b915061215f8261211e565b602082019050919050565b6000602082019050818103600083015261218381612147565b9050919050565b7f4e487b7100000000000000000000000000000000000000000000000000000000600052601160045260246000fd5b60006121c482611a45565b91506121cf83611a45565b92508282026121dd81611a45565b915082820484148315176121f4576121f361218a565b5b5092915050565b7f436f7374206d757374206265206174206c65617374206d696e696d756d20706560008201527f6e616c7479202a20320000000000000000000000000000000000000000000000602082015250565b6000612257602983611f84565b9150612262826121fb565b604082019050919050565b600060208201905081810360008301526122868161224a565b9050919050565b600081905092915050565b60006122a382611cd0565b6122ad818561228d565b93506122bd818560208601611cec565b80840191505092915050565b60006122d58284612298565b915081905092915050565b7f4e487b7100000000000000000000000000000000000000000000000000000000600052602260045260246000fd5b6000600282049050600182168061232757607f821691505b60208210810361233a576123396122e0565b5b50919050565b7f50617373776f726420656e747279206e6f7420666f756e640000000000000000600082015250565b6000612376601883611f84565b915061238182612340565b602082019050919050565b600060208201905081810360008301526123a581612369565b9050919050565b7f4f6e6c79206f776e65722063616e2063616c6c20746869732066756e6374696f60008201527f6e00000000000000000000000000000000000000000000000000000000000000602082015250565b6000612408602183611f84565b9150612413826123ac565b604082019050919050565b60006020820190508181036000830152612437816123fb565b9050919050565b7f5661756c74206d757374206265206f70656e6564206174206c65617374206f6e60008201527f6365206265666f72652072657365740000000000000000000000000000000000602082015250565b600061249a602f83611f84565b91506124a58261243e565b604082019050919050565b600060208201905081810360008301526124c98161248d565b9050919050565b600060408201905081810360008301526124ea8185611f95565b90506124f96020830184611fce565b9392505050565b7f5573657220616c72656164792072656769737465726564000000000000000000600082015250565b6000612536601783611f84565b915061254182612500565b602082019050919050565b6000602082019050818103600083015261256581612529565b9050919050565b7f54697020616d6f756e7420746f6f20736d616c6c000000000000000000000000600082015250565b60006125a2601483611f84565b91506125ad8261256c565b602082019050919050565b600060208201905081810360008301526125d181612595565b9050919050565b60008190508160005260206000209050919050565b60006020601f8301049050919050565b600082821b905092915050565b60006008830261263a7fffffffffffffffffffffffffffffffffffffffffffffffffffffffffffffffff826125fd565b61264486836125fd565b95508019841693508086168417925050509392505050565b6000819050919050565b600061268161267c61267784611a45565b61265c565b611a45565b9050919050565b6000819050919050565b61269b83612666565b6126af6126a782612688565b84845461260a565b825550505050565b600090565b6126c46126b7565b6126cf818484612692565b505050565b5b818110156126f3576126e86000826126bc565b6001810190506126d5565b5050565b601f82111561273857612709816125d8565b612712846125ed565b81016020851015612721578190505b61273561272d856125ed565b8301826126d4565b50505b505050565b600082821c905092915050565b600061275b6000198460080261273d565b1980831691505092915050565b6000612774838361274a565b9150826002028217905092915050565b61278d82611cd0565b67ffffffffffffffff8111156127a6576127a5611aa8565b5b6127b0825461230f565b6127bb8282856126f7565b600060209050601f8311600181146127ee57600084156127dc578287015190505b6127e68582612768565b86555061284e565b601f1984166127fc866125d8565b60005b82811015612824578489015182556001820191506020850194506020810190506127ff565b86831015612841578489015161283d601f89168261274a565b8355505b6001600288020188555050505b505050505050565b600060208201905081810360008301526128708184611f95565b905092915050565b600061288382611a45565b915061288e83611a45565b92508282019050808211156128a6576128a561218a565b5b92915050565b60006128b782611a45565b91506128c283611a45565b92508282039050818111156128da576128d961218a565b5b92915050565b7f4e6f20736563757265642062616c616e636520746f2077697468647261770000600082015250565b6000612916601e83611f84565b9150612921826128e0565b602082019050919050565b6000602082019050818103600083015261294581612909565b9050919050565b7f5661756c74206973206c6f636b65640000000000000000000000000000000000600082015250565b6000612982600f83611f84565b915061298d8261294c565b602082019050919050565b600060208201905081810360008301526129b181612975565b9050919050565b7f496e73756666696369656e742062616c616e636520666f7220706f74656e746960008201527f616c2070656e616c747900000000000000000000000000000000000000000000602082015250565b6000612a14602a83611f84565b9150612a1f826129b8565b604082019050919050565b60006020820190508181036000830152612a4381612a07565b9050919050565b6000612a5582611a45565b91507fffffffffffffffffffffffffffffffffffffffffffffffffffffffffffffffff8203612a8757612a8661218a565b5b600182019050919050565b7f4e487b7100000000000000000000000000000000000000000000000000000000600052601260045260246000fd5b6000612acc82611a45565b9150612ad783611a45565b925082612ae757612ae6612a92565b5b828206905092915050565b6000612afd82611a45565b9150612b0883611a45565b925082612b1857612b17612a92565b5b828204905092915050565b60008160011c9050919050565b6000808291508390505b6001851115612b7a57808604811115612b5657612b5561218a565b5b6001851615612b655780820291505b8081029050612b7385612b23565b9450612b3a565b94509492505050565b600082612b935760019050612c4f565b81612ba15760009050612c4f565b8160018114612bb75760028114612bc157612bf0565b6001915050612c4f565b60ff841115612bd357612bd261218a565b5b8360020a915084821115612bea57612be961218a565b5b50612c4f565b5060208310610133831016604e8410600b8410161715612c255782820a905083811115612c2057612c1f61218a565b5b612c4f565b612c328484846001612b30565b92509050818404811115612c4957612c4861218a565b5b81810290505b9392505050565b6000612c6182611a45565b9150612c6c83611a45565b9250612c997fffffffffffffffffffffffffffffffffffffffffffffffffffffffffffffffff8484612b83565b90509291505056fe496e636f72726563742070617373776f72642c2070656e616c7479206170706c6965645661756c74206c6f636b656420666f72203320646179732064756520746f206d756c7469706c65206661696c656420617474656d707473a26469706673582212207907d504f6052c81f8a493939034c2ea71de08402c8b414b46491c8b8e8222f164736f6c634300081c0033",
  "linkReferences": {},
  "deployedLinkReferences": {}
}